:1000000065C0000082C0000080C000007EC000000B
:100010007CC000007AC0000078C0000076C00000FC
:1000200074C0000072C0000070C000006EC000000C
:100030000C94AD0A6AC0000068C000000C947A0AF3
:1000400064C0000062C0000060C000005EC000002C
:100050005CC000005AC0000058C0000056C000003C
:1000600054C0000052C0000050C000004EC000004C
:100070004CC000004AC0000048C0000046C000005C
:1000800044C0000042C0000040C0000055023D02D4
:100090003F02530241024302450253024702490212
:1000A0004B0253024D024F025102000306030C03A0
:1000B000120318031E03240344047404A604D80482
:1000C0000A053C056E05A005D205140411241FBEC7
:1000D000CFEFD0E1DEBFCDBF12E0A0E0B1E0E2E9BA
:1000E000F7E100E00BBF02C007900D92A031B1070D
:1000F000D9F722E0A0E1B2E001C01D92AF32B20711
:10010000E1F70E944A0A0C94C70B7ACF982F929578
:100110009F70990F292F220F220F920F8F70890F36
:1001200008959DEC899F912D11249695969596950D
:10013000392F330F232F220F220F230F821B20E191
:10014000929F800D1124089582B18C6182B91A9812
:100150001C981B9808951A981C981C9A0895139A35
:1001600098E080FF02C01B9A01C01B981A982AE0F1
:100170002A95F1F700C01A9A2AE02A95F1F700C0F3
:100180008695915071F70895CF93DF93D82FC62F9E
:10019000E2DF8D2FE4DF8C2FE2DF1C981A98DF91CD
:1001A000CF910895BEDF682F80E8EECF0895B9DFC4
:1001B000682F82E8E9CF0895B4DF682F84E8E4CFA0
:1001C0000895AFDF682F86E8DFCF0895AADF682F94
:1001D00088E8DACF0895A5DF682F8AE8D5CF08959B
:1001E000A0DF682F8CE8D0CF0895139820E030E08E
:1001F00080E01A9A9AE09A95F1F700C01A989AE06E
:100200009A95F1F700C091B193FB442740F950E073
:10021000BA01022E02C0660F771F0A94E2F7862BFE
:100220002F5F3F4F2830310521F70895CF93C82F16
:1002300092DF8C2F94DFD9DF1C981A98CF91089504
:1002400081E8F4DF63CF089583E8F0DF5FCF08959E
:1002500085E8ECDF5BCF089587E8E8DF57CF0895A6
:1002600089E8E4DF53CF08958BE8E0DF4FCF0895AE
:100270008DE8DCDF4BCF089580EF81BB12BA089583
:1002800080B38F70813041F0823041F0843041F092
:10029000883041F080E0089581E0089582E008957B
:1002A00083E0089584E00895FF920F931F93CF9306
:1002B000DF93C0E0D0E000E110E0FC2E98010C2EAE
:1002C00002C0220F331F0A94E2F722BB8FE39CE99E
:1002D0000197F1F700C00000D3DF882359F08FE3C6
:1002E0009FE10197F1F700C00000CADFFF0CFF0C8F
:1002F0008F0D04C02196C430D105F9F6DF91CF915E
:100300001F910F91FF90089593B19F7193B995E05C
:100310009A95F1F7000088BB1F9A85E08A95F1F75E
:1003200000001F9895ED9A95F1F70000089593B19C
:100330009F7393B91D9A95E09A95F1F7000088BBD9
:100340001F9A85E08A95F1F700001F9895ED9A9520
:10035000F1F700000895CF93DF93EB01D5DF88819B
:10036000882329F02196E3DF89918111FCCFDF9169
:10037000CF9108958FEF87BB82B1806E82B987ECF1
:1003800090E00197F1F700C0000083B1806A83B963
:1003900087EC90E00197F1F700C000001F9887EC10
:1003A00090E00197F1F700C0000088E3ADDF8CE03A
:1003B000ABDF86E0A9DF81E0A7DF8FE19EE4019754
:1003C000F1F700C0000008958FEF84BB15BA0895BF
:1003D00088E085BB80E28BBB2FEF81EE94E021505B
:1003E00080409040E1F700C000001BBA2FEF8BE780
:1003F00092E9215080409040E1F700C0000015BA1A
:10040000089584E085BB80EE8BBB2FEF81EE94E0F6
:10041000215080409040E1F700C000001BBA2FEF50
:100420008BE792E9215080409040E1F700C0000046
:1004300015BA089581E085BB80EE8BBB2FEF81EE6E
:1004400094E0215080409040E1F700C000001BBACA
:100450002FEF8BE792E9215080409040E1F700C0F8
:10046000000015BA089590E0FC013197EF30F105D6
:10047000D0F4EA5BFF4F0C949F0B82E0089583E079
:10048000089584E0089585E0089586E0089587E062
:10049000089588E0089589E008958BE008958AE042
:1004A00008958CE0089580E0089581E008958AE041
:1004B00090E078DE8FE190E07ADE8AE090E07CDE0A
:1004C00088E090E07EDE85E090E085DE86E090E0EA
:1004D0007DDE82E190E084CE0895B2DE8093280232
:1004E000B3DE80932402B4DE80932202B5DE8093D3
:1004F0002C02BADE80932B02B3DE80932002B8DE9A
:10050000809327020895CF9380911A0290911B0245
:10051000892B09F0FCC06FE171E080E890E01BDFFF
:1005200060E371E080EC90E016DF83E890E0ECDEC1
:1005300080912702CDEC8C9F812D11248695869584
:10054000869590E0C096F3DE809127028C9F912DD6
:100550001124969596959695990F292F220F220F83
:10056000920F891B90E0C096E2DE86E890E0CCDE38
:10057000809120028C9F812D1124869586958695E9
:1005800090E0C096D4DE809120028C9F912D1124A2
:10059000969596959695990F292F220F220F920FD7
:1005A000891B90E0C096C3DE89E890E0ADDE8091C3
:1005B0002C028C9F812D112486958695869590E03E
:1005C000C096B5DE80912C028C9FC12D1124C6955A
:1005D000C695C695CC0F9C2F990F990FC90F8C1BF0
:1005E00090E0C096A4DEE0912B028E2F90E0FC01FB
:1005F0003197E730F10568F5EB5AFF4F0C949F0BEC
:1006000061E471E08CE890E0A6DE23C065E471E06F
:100610008CE890E0A0DE1DC069E471E08CE890E019
:100620009ADE17C06DE471E08CE890E094DE11C0B2
:1006300061E571E08CE890E08EDE0BC065E571E06D
:100640008CE890E088DE05C069E571E08CE890E018
:1006500082DE84EC90E058DE80912202CDEC8C9F0B
:10066000812D112486958695869590E0C0965FDE53
:10067000809122028C9F912D1124969596959695A6
:10068000990F292F220F220F920F891B90E0C096FD
:100690004EDE87EC90E038DE809124028C9F812D25
:1006A000112486958695869590E0C09640DE8091CF
:1006B00024028C9F912D1124969596959695990FCD
:1006C000292F220F220F920F891B90E0C0962FDE58
:1006D0008AEC90E019DE809128028C9F812D1124F4
:1006E00086958695869590E0C09621DE80912802B9
:1006F0008C9FC12D1124C695C695C695CC0F9C2FF5
:10070000990F990FC90F8C1B90E0C09610DECF9106
:100710000895EF92FF921F93CF93DF93CDB7DEB78B
:100720002A970FB6F894DEBF0FBECDBF182F8AE010
:10073000E5E1F1E0DE01119601900D928A95E1F775
:1007400025E32A95F1F70000E12EF12CADDDE81646
:10075000F90609F08FC680911102181709F48AC6AC
:10076000109311028091140290911502892B81F44B
:100770008091100281110CC081E090E0C5DD8FE115
:100780009EE40197F1F700C000008FEC90E0BCDD23
:100790008091110268DE80930A0120911A02309143
:1007A0001B02232BE9F48B3061F481E090E09093FD
:1007B0001B0280931A026DE571E080E890E0CBDDCA
:1007C0000FC08C3061F482E090E090931B02809324
:1007D0001A026DE671E080E890E0BDDD01C093DEB5
:1007E00080911A0290911B020197039708F042C66C
:1007F0008091160290911702059708F0E0C554DD2C
:1008000032DEE82F80930A018FEF8E0F8A3008F0D6
:1008100007C28E2F90E0FC013197EA30F10508F015
:10082000F2C1E45AFF4F8BC78091140290911502D8
:10083000892B21F088E190E067DD0CC081E090E039
:1008400063DD8FE19EE40197F1F700C000008FECBB
:1008500090E05ADD80E390E06ADD8091160290918D
:1008600017020196FC01EE0FFF1FE050FF4F1182AF
:100870001082909317028093160281E090E090938B
:10088000150280931402BFC1809114029091150249
:10089000892B21F088E190E037DD0CC081E090E009
:1008A00033DD8FE19EE40197F1F700C000008FEC8B
:1008B00090E02ADD81E390E03ADD8091160290918C
:1008C00017020196FC01EE0FFF1FE050FF4F21E0E1
:1008D00030E0318320839093170280931602309387
:1008E0001502209314028FC1809114029091150279
:1008F000892B21F088E190E007DD0CC081E090E0D9
:1009000003DD8FE19EE40197F1F700C000008FEC5A
:1009100090E0FADC82E390E00ADD8091160290918B
:1009200017020196FC01EE0FFF1FE050FF4F22E07F
:1009300030E031832083909317028093160281E088
:1009400090E090931502809314025DC1809114028F
:1009500090911502892B21F088E190E0D5DC0CC044
:1009600081E090E0D1DC8FE19EE40197F1F700C0D7
:1009700000008FEC90E0C8DC83E390E0D8DC80914D
:100980001602909117020196FC01EE0FFF1FE05036
:10099000FF4F23E030E03183208390931702809350
:1009A000160281E090E090931502809314022BC10F
:1009B0008091140290911502892B21F088E190E03A
:1009C000A3DC0CC081E090E09FDC8FE19EE4019706
:1009D000F1F700C000008FEC90E096DC84E390E03B
:1009E000A6DC80911602909117020196FC01EE0F91
:1009F000FF1FE050FF4F24E030E0318320839093CD
:100A000017028093160281E090E090931502809384
:100A10001402F9C08091140290911502892B21F0E3
:100A200088E190E071DC0CC081E090E06DDC8FE14A
:100A30009EE40197F1F700C000008FEC90E064DCC9
:100A400085E390E074DC8091160290911702019684
:100A5000FC01EE0FFF1FE050FF4F25E030E0318337
:100A60002083909317028093160281E090E0909388
:100A7000150280931402C7C0809114029091150250
:100A8000892B21F088E190E03FDC0CC081E090E010
:100A90003BDC8FE19EE40197F1F700C000008FEC92
:100AA00090E032DC86E390E042DC80911602909187
:100AB00017020196FC01EE0FFF1FE050FF4F26E0EA
:100AC00030E031832083909317028093160281E0F7
:100AD00090E0909315028093140295C080911402C7
:100AE00090911502892B21F088E190E00DDC0CC07B
:100AF00081E090E009DC8FE19EE40197F1F700C00E
:100B000000008FEC90E000DC87E390E010DC809147
:100B10001602909117020196FC01EE0FFF1FE050A4
:100B2000FF4F27E030E031832083909317028093BA
:100B3000160281E090E0909315028093140263C046
:100B40008091140290911502892B21F088E190E0A8
:100B5000DBDB0CC081E090E0D7DB8FE19EE4019706
:100B6000F1F700C000008FEC90E0CEDB88E390E06E
:100B7000DEDB80911602909117020196FC01EE0FC8
:100B8000FF1FE050FF4F28E030E031832083909337
:100B900017028093160281E090E0909315028093F3
:100BA000140231C08091140290911502892B21F01A
:100BB00088E190E0A9DB0CC081E090E0A5DB8FE14B
:100BC0009EE40197F1F700C000008FEC90E09CDB01
:100BD00089E390E0ACDB80911602909117020196B8
:100BE000FC01EE0FFF1FE050FF4F29E030E03183A2
:100BF0002083909317028093160281E090E09093F7
:100C000015028093140280EC8BBB9FEF21EE84E0F1
:100C1000915020408040E1F700C000001BBA2AC478
:100C200085EF8E0F863008F025C4809114029091D4
:100C30001502892B09F41EC480911A0290911B029F
:100C40008130910509F09FC1EB3009F013C481E0B8
:100C50008093100281E090E057DB8FE19EE40197E2
:100C6000F1F700C0000080EC90E04EDB80911602AE
:100C70009091170282309105D9F018F4019709F18B
:100C800029C08330910559F0049721F5809108011E
:100C900090910901C0964BDB88E190E035DB8091B3
:100CA000060190910701C09642DB88E190E02CDBC1
:100CB0008091040190910501C09639DB88E190E0B4
:100CC00023DB8091020190910301C09630DB88E123
:100CD00090E01ADB209116023091170221153105A0
:100CE00009F4A6C0A2E0B1E0FE01339681E090E0F5
:100CF0004D915D9141935193019628173907C0F7A3
:100D00002130310591F481E090E04B815C812091AC
:100D10000D0130910E014217530711F080E090E071
:100D2000909313028093120283C022303105E9F4BC
:100D30002B813C8180910D0190910E01281739077C
:100D400069F491E080E04D815E8120910F01309146
:100D500010014217530721F090E002C090E080E0BC
:100D6000909312028093130263C02330310549F53A
:100D70002B813C8180910D0190910E01281739073C
:100D8000B1F42D813E8180910F01909110012817BF
:100D9000390781F491E080E04F815885209111015D
:100DA000309112014217530739F090E005C090E0EE
:100DB00080E002C090E080E09093120280931302E2
:100DC00037C024303105A1F52B813C8180910D0184
:100DD00090910E0128173907F9F42D813E818091F9
:100DE0000F019091100128173907C9F42F81388518
:100DF00080911101909112012817390799F491E01F
:100E000080E049855A8520911301309114014217E1
:100E1000530751F090E008C090E080E005C090E0FA
:100E200080E002C090E080E0909312028093130271
:100E30008091120290911302892B09F441C06DE751
:100E400071E080E890E087DAC3DA9FEF23EC89E075
:100E5000915020408040E1F700C0000081E090E028
:100E600053DA8FE19EE40197F1F700C0000080ECB7
:100E700090E04ADA81E080936200109210021092B2
:100E80001B0210921A021092130210921202109278
:100E90001502109214021092170210921602E0E04E
:100EA000F1E087EE93E0918380839383828395833F
:100EB000848397838683918780879387828757C0AF
:100EC000809118029091190204975CF060E971E03A
:100ED00080E890E040DAAEDA10921902109218021F
:100EE0000FC063EA71E080E890E035DA8ADA809139
:100EF000180290911902019690931902809318029A
:100F00009FEF23EC89E0915020408040E1F700C042
:100F1000000081E090E0F8D98FE19EE40197F1F7BD
:100F200000C0000080EC90E0EFD910921002109207
:100F30001B0210921A0210921302109212021092C7
:100F40001502109214021092170210921602E0E09D
:100F5000F1E087EE93E0918380839383828395838E
:100F600084839783868391878087938782879FEF87
:100F70002FE483EC915020408040E1F700C0000056
:100F80001092620077C28230910509F07AC1EC308C
:100F900009F070C281E08093100281E090E0B4D942
:100FA0008FE19EE40197F1F700C0000080EC90E033
:100FB000ABD9809116029091170282309105D9F039
:100FC00018F4019709F129C08330910559F004976D
:100FD00021F58091080190910901C096A8D988E176
:100FE00090E092D98091060190910701C0969FD917
:100FF00088E190E089D98091040190910501C09623
:1010000096D988E190E080D9809102019091030106
:10101000C0968DD988E190E077D9809116029091A1
:101020001702009709F4A6C0A2E0B1E0FE013396D2
:1010300021E030E04D915D91419351932F5F3F4FFF
:1010400082179307B8F78130910591F481E090E021
:101050004B815C8120910D0130910E0142175307A5
:1010600011F080E090E0909313028093120282C00E
:1010700082309105E9F42B813C8180910D019091A2
:101080000E012817390769F491E080E04D815E81F7
:1010900020910F01309110014217530721F090E089
:1010A00002C090E080E0909312028093130262C02D
:1010B0008330910549F52B813C8180910D01909100
:1010C0000E0128173907B1F42D813E8180910F015F
:1010D000909110012817390781F491E080E04F8149
:1010E000588520911101309112014217530739F0B0
:1010F00090E005C090E080E002C090E080E0909336
:1011000012028093130236C00497A1F52B813C8113
:1011100080910D0190910E0128173907F9F42D8166
:101120003E8180910F019091100128173907C9F471
:101130002F8138858091110190911201281739076C
:1011400099F491E080E049855A852091130130910E
:1011500014014217530751F090E008C090E080E07E
:1011600005C090E080E002C090E080E09093120221
:10117000809313028091120290911302892B09F43B
:1011800041C063EB71E080E890E0E5D89FEF2AE68C
:1011900083E0915020408040E1F700C0000066EC01
:1011A00071E080EC90E0D7D89FEF2AE683E0915081
:1011B00020408040E1F700C000001092100283E060
:1011C00090E090931B0280931A02109213021092E7
:1011D000120210921502109214021092170210922D
:1011E0001602E0E0F1E087EE93E091838083938341
:1011F000828395838483978386839187808793876F
:10120000828738C163EA71E080E890E0A4D89FEF5C
:1012100023EC89E0915020408040E1F700C00000BD
:1012200081E090E071D88FE19EE40197F1F700C072
:10123000000080EC90E068D81092100282E090E00C
:1012400090931B0280931A021092130210921202C2
:1012500010921502109214021092170210921602A8
:10126000E0E0F1E087EE93E09183808393838283D3
:1012700095838483978386839187808793878287EA
:10128000F9C0039709F0F6C0EC3009F0F3C081E033
:101290008093100281E090E037D88FE19EE40197BF
:1012A000F1F700C0000080EC90E02ED8809116028B
:1012B0009091170282309105D9F018F4019709F145
:1012C0002AC08330910559F0049729F580910801CF
:1012D00090910901C0962BD888E190E015D88091B3
:1012E000060190910701C09622D888E190E00CD8C1
:1012F0008091040190910501C09619D888E190E091
:1013000003D88091020190910301C09610D888E122
:1013100090E00E948401209116023091170221155D
:10132000310571F0A2E0B1E0EDE0F1E081E090E0A4
:101330004D915D9141935193019628173907C0F75C
:101340006AED71E080E890E006D89FEF23EC89E039
:10135000915020408040E1F700C0000081E090E023
:101360000E9484018FE19EE40197F1F700C0000024
:1013700080EC90E00E9484011092100210921B02F7
:1013800010921A0210921302109212021092150279
:10139000109214021092170210921602E0E0F1E08F
:1013A00087EE93E091838083938382839583848304
:1013B0009783868391878087938782875BC081E04C
:1013C00090E00E9484018FE19EE40197F1F700C054
:1013D000000080EC90E00E948401809116029091C0
:1013E000170282309105F9F018F4019739F131C0F4
:1013F0008330910569F0049761F58091080190911F
:101400000901C0960E94970188E190E00E94840142
:101410008091060190910701C0960E94970188E192
:1014200090E00E9484018091040190910501C09692
:101430000E94970188E190E00E948401809102015E
:1014400090910301C0960E94970188E190E00E946C
:1014500084010E945401E816F90661F4812F03D833
:1014600080930A0110921702109216021092150230
:10147000109214022A960FB6F894DEBF0FBECDBFAD
:10148000DF91CF911F91FF90EF90089580EE8ABB7E
:101490001BBA089581E0809361001092620080EF92
:1014A0008ABB1BBAB1D082E090E0B9D00E94BA01E9
:1014B0000E94E401EBDF6EEE71E080E890E00E94B4
:1014C000AB016FEF71E080EC90E00E94AB010E94F5
:1014D000A4000E94570201D80E943C017894809198
:1014E0002102882319F0109221020DD80E94540184
:1014F00010D9F5CF1F920F920FB60F9211240BB691
:101500000F922F938F939F93EF93FF93E5E6F0E075
:101510008081807F8083208181E090E000901C02A8
:1015200002C0880F991F0A94E2F7822B8083809172
:101530001C028F5F843019F080931C0202C010924D
:101540001C02FF91EF919F918F912F910F900BBEF5
:101550000F900FBE0F901F9018951F920F920FB60D
:101560000F9211240BB60F922F933F934F935F93DB
:101570006F937F938F939F93AF93BF93EF93FF935B
:101580008091290290912A02019690932A028093D9
:1015900029028091290290912A02843F91400CF106
:1015A00010922A021092290281E0809321020E9467
:1015B00020018093280280912802811112C00E948C
:1015C0002401809324028091240281110AC00E9488
:1015D00028018093220280912202811102C00E9480
:1015E0006D02FF91EF91BF91AF919F918F917F918C
:1015F0006F915F914F913F912F910F900BBE0F9084
:101600000FBE0F901F9018958EE083BF8CE781BFAF
:1016100087B7826087BF16BE10927C000895CF9373
:10162000DF93EC018FB58FBD8EB58C608EBDEAE780
:10163000F0E0808180838EB58770833089F028F454
:10164000813041F0823049F013C0843061F0853040
:1016500069F00EC021E030E00BC028E030E008C0A7
:1016600020E430E005C020E031E002C020E034E0BA
:10167000032E000C440B550B60E074E284EF90E005
:1016800042D0DE0174D028EE33E040E050E03BD0A1
:10169000DA01C9010197A109B109892F9A2FAB2F4E
:1016A000BB27A7FDBA958BBD21502ABD1DBC1CBC14
:1016B00087B7806187BF16BE10927C00DF91CF9103
:1016C0000895A1E21A2EAA1BBB1BFD010DC0AA1F83
:1016D000BB1FEE1FFF1FA217B307E407F50720F09B
:1016E000A21BB30BE40BF50B661F771F881F991F16
:1016F0001A9469F760957095809590959B01AC015F
:10170000BD01CF010895052E97FB16F400940FD06C
:1017100057FD05D0D6DF07FC02D046F408C050952F
:101720004095309521953F4F4F4F5F4F08959095CD
:101730008095709561957F4F8F4F9F4F0895EE0F65
:10174000FF1F0024001C0BBE0790F691E02D0994AA
:10175000A29FB001B39FC001A39F700D811D1124F2
:10176000911DB29F700D811D1124911D0895B7FF29
:1017700004C003D0821B930B0895EADFA59F900D50
:10178000B49F900DA49F800D911D11240895F8948D
:02179000FFCF89
:10179200E703E703E703E703E7036401000100014E
:1017A2000001000100E703E703E703E703E7032083
:1017B200202020202F20202F202020202020200029
:1017C2002020202020203A20203A202020202020E3
:1017D200004D6F6E005468750057656E0054687254
:1017E20000467269005361740053756E0020696E81
:1017F2007075742070617373776F72640020636810
:1018020065636B2070617373776F726400202020B0
:1018120020202020737563636573732121212000CA
:10182200202020202020205761726E696E672121BE
:10183200212000202020202020206661696C2E2E8D
:101842002E200020202020636865636B20636F6D6B
:10185200706C65746500202020206368616E676586
:101862002070617373776F72640020202020636898
:10187200616E676520636F6D706C65746500202012
:101882002030302D30302D303020202020200020FC
:1018920020202030303A30303A30302020202000D2
:00000001FF
